{
  "contractName": "Ejercicio",
  "abi": [
    {
      "constant": false,
      "inputs": [
        {
          "name": "_address",
          "type": "address"
        },
        {
          "name": "longitud",
          "type": "uint256"
        },
        {
          "name": "latitud",
          "type": "uint256"
        },
        {
          "name": "caudal",
          "type": "uint256"
        },
        {
          "name": "fecha",
          "type": "string"
        }
      ],
      "name": "setUbicacion_Geografica",
      "outputs": [],
      "payable": false,
      "stateMutability": "nonpayable",
      "type": "function"
    },
    {
      "constant": false,
      "inputs": [
        {
          "name": "_address",
          "type": "address"
        }
      ],
      "name": "registrarCiudadano",
      "outputs": [],
      "payable": false,
      "stateMutability": "nonpayable",
      "type": "function"
    },
    {
      "constant": false,
      "inputs": [
        {
          "name": "_address",
          "type": "address"
        }
      ],
      "name": "registrarFuncionario",
      "outputs": [],
      "payable": false,
      "stateMutability": "nonpayable",
      "type": "function"
    },
    {
      "constant": true,
      "inputs": [
        {
          "name": "_address",
          "type": "address"
        }
      ],
      "name": "getStatus",
      "outputs": [
        {
          "name": "",
          "type": "bool"
        }
      ],
      "payable": false,
      "stateMutability": "view",
      "type": "function"
    },
    {
      "constant": true,
      "inputs": [
        {
          "name": "fecha",
          "type": "string"
        }
      ],
      "name": "getUbicacion_Geografica",
      "outputs": [
        {
          "name": "",
          "type": "uint256"
        },
        {
          "name": "",
          "type": "uint256"
        },
        {
          "name": "",
          "type": "uint256"
        }
      ],
      "payable": false,
      "stateMutability": "view",
      "type": "function"
    }
  ],
  "bytecode": "0x608060405234801561001057600080fd5b5061076c806100206000396000f3fe608060405234801561001057600080fd5b50600436106100575760003560e01c80631efe666d1461005c5780632e70ec60146100a057806330ccebb5146100e45780635ebcf85b14610140578063ea4e7a4114610239575b600080fd5b61009e6004803603602081101561007257600080fd5b81019080803573ffffffffffffffffffffffffffffffffffffffff169060200190929190505050610316565b005b6100e2600480360360208110156100b657600080fd5b81019080803573ffffffffffffffffffffffffffffffffffffffff169060200190929190505050610373565b005b610126600480360360208110156100fa57600080fd5b81019080803573ffffffffffffffffffffffffffffffffffffffff1690602001909291905050506103d0565b604051808215151515815260200191505060405180910390f35b610237600480360360a081101561015657600080fd5b81019080803573ffffffffffffffffffffffffffffffffffffffff169060200190929190803590602001909291908035906020019092919080359060200190929190803590602001906401000000008111156101b157600080fd5b8201836020820111156101c357600080fd5b803590602001918460018302840111640100000000831117156101e557600080fd5b91908080601f016020809104026020016040519081016040528093929190818152602001838380828437600081840152601f19601f820116905080830192505050505050509192919290505050610428565b005b6102f26004803603602081101561024f57600080fd5b810190808035906020019064010000000081111561026c57600080fd5b82018360208201111561027e57600080fd5b803590602001918460018302840111640100000000831117156102a057600080fd5b91908080601f016020809104026020016040519081016040528093929190818152602001838380828437600081840152601f19601f8201169050808301925050505050505091929192905050506105e7565b60405180848152602001838152602001828152602001935050505060405180910390f35b60008060008373ffffffffffffffffffffffffffffffffffffffff1673ffffffffffffffffffffffffffffffffffffffff16815260200190815260200160002060000160006101000a81548160ff02191690831515021790555050565b60016000808373ffffffffffffffffffffffffffffffffffffffff1673ffffffffffffffffffffffffffffffffffffffff16815260200190815260200160002060000160006101000a81548160ff02191690831515021790555050565b60008060008373ffffffffffffffffffffffffffffffffffffffff1673ffffffffffffffffffffffffffffffffffffffff16815260200190815260200160002060000160009054906101000a900460ff169050919050565b600115156000808773ffffffffffffffffffffffffffffffffffffffff1673ffffffffffffffffffffffffffffffffffffffff16815260200190815260200160002060000160009054906101000a900460ff16151514156105db57836001826040518082805190602001908083835b602083106104ba5780518252602082019150602081019050602083039250610497565b6001836020036101000a038019825116818451168082178552505050505050905001915050908152602001604051809103902060000181905550826001826040518082805190602001908083835b6020831061052b5780518252602082019150602081019050602083039250610508565b6001836020036101000a038019825116818451168082178552505050505050905001915050908152602001604051809103902060010181905550816001826040518082805190602001908083835b6020831061059c5780518252602082019150602081019050602083039250610579565b6001836020036101000a0380198251168184511680821785525050505050509050019150509081526020016040518091039020600201819055506105e0565b600080fd5b5050505050565b60008060006001846040518082805190602001908083835b6020831061062257805182526020820191506020810190506020830392506105ff565b6001836020036101000a0380198251168184511680821785525050505050509050019150509081526020016040518091039020600001546001856040518082805190602001908083835b6020831061068f578051825260208201915060208101905060208303925061066c565b6001836020036101000a0380198251168184511680821785525050505050509050019150509081526020016040518091039020600101546001866040518082805190602001908083835b602083106106fc57805182526020820191506020810190506020830392506106d9565b6001836020036101000a038019825116818451168082178552505050505050905001915050908152602001604051809103902060020154925092509250919390925056fea165627a7a72305820877a9edb74b57c4a535116f594d639e4af45e5bdc7517b8740cb697bb283d4020029",
  "source": "pragma solidity ^0.5.0;\r\ncontract Ejercicio {\r\n        struct Ubicacion_geografica {\r\n        uint longitud;\r\n        uint latitud;\r\n        uint caudal;\r\n    }\r\n        struct Usuario{\r\n            bool funcionario;\r\n        }\r\n    mapping (address => Usuario) usuarios;\r\n    mapping (string => Ubicacion_geografica) ubicaciones;\r\n    \r\n    function setUbicacion_Geografica(address _address, uint longitud, uint latitud, uint caudal, string memory fecha) public {\r\n        if (usuarios[_address].funcionario==true){\r\n        ubicaciones[fecha].longitud=longitud;\r\n        ubicaciones[fecha].latitud=latitud;\r\n        ubicaciones[fecha].caudal=caudal;\r\n        }\r\n        else{\r\n            revert();\r\n        }\r\n    }\r\n    function registrarCiudadano (address _address) public{\r\n        usuarios[_address].funcionario=false;\r\n    }\r\n     function registrarFuncionario (address _address) public{\r\n        usuarios[_address].funcionario=true;\r\n    }\r\n    \r\n     function getStatus(address _address) view public returns(bool){\r\n         return (usuarios[_address].funcionario);\r\n     }\r\n    \r\n    function getUbicacion_Geografica(string memory fecha) view public returns (uint,uint,uint){\r\n                return (ubicaciones[fecha].longitud,ubicaciones[fecha].latitud, ubicaciones[fecha].caudal);\r\n    }\r\n    \r\n    \r\n}",
  "sourcePath": "C:/Users/FAMILIA/Documents/bc/Nueva carpeta/Blockchain_project/contracts/Ejercicio.sol",
  "compiler": {
    "name": "solc",
    "version": "0.5.8+commit.23d335f2.Emscripten.clang"
  },
  "schemaVersion": "3.0.16",
  "updatedAt": "2019-12-02T00:18:19.936Z",
  "devdoc": {
    "methods": {}
  },
  "userdoc": {
    "methods": {}
  }
}