{
  "contractName": "Encuestas",
  "abi": [
    {
      "constant": false,
      "inputs": [
        {
          "name": "nombre",
          "type": "string"
        },
        {
          "name": "preguntas",
          "type": "string"
        }
      ],
      "name": "registrarEncuesta",
      "outputs": [],
      "payable": false,
      "stateMutability": "nonpayable",
      "type": "function"
    },
    {
      "constant": true,
      "inputs": [
        {
          "name": "nombre",
          "type": "string"
        }
      ],
      "name": "getPreguntas",
      "outputs": [
        {
          "name": "preguntas",
          "type": "string"
        }
      ],
      "payable": false,
      "stateMutability": "view",
      "type": "function"
    },
    {
      "constant": false,
      "inputs": [
        {
          "name": "nombre",
          "type": "string"
        },
        {
          "name": "respuesta",
          "type": "string"
        }
      ],
      "name": "setRespuesta",
      "outputs": [],
      "payable": false,
      "stateMutability": "nonpayable",
      "type": "function"
    },
    {
      "constant": true,
      "inputs": [
        {
          "name": "nombre",
          "type": "string"
        }
      ],
      "name": "getRespuesta",
      "outputs": [
        {
          "name": "respuestas",
          "type": "string"
        }
      ],
      "payable": false,
      "stateMutability": "view",
      "type": "function"
    },
    {
      "constant": true,
      "inputs": [
        {
          "name": "nombre",
          "type": "string"
        }
      ],
      "name": "getNumRespuestas",
      "outputs": [
        {
          "name": "respuestas",
          "type": "int256"
        }
      ],
      "payable": false,
      "stateMutability": "view",
      "type": "function"
    }
  ],
  "bytecode": "0x608060405234801561001057600080fd5b50610c5f806100206000396000f3fe608060405234801561001057600080fd5b50600436106100575760003560e01c80635b2a9b211461005c5780636511a7dc1461019057806396fa4e38146102c4578063c69816fd14610416578063d241791a14610568575b600080fd5b6101156004803603602081101561007257600080fd5b810190808035906020019064010000000081111561008f57600080fd5b8201836020820111156100a157600080fd5b803590602001918460018302840111640100000000831117156100c357600080fd5b91908080601f016020809104026020016040519081016040528093929190818152602001838380828437600081840152601f19601f820116905080830192505050505050509192919290505050610637565b6040518080602001828103825283818151815260200191508051906020019080838360005b8381101561015557808201518184015260208101905061013a565b50505050905090810190601f1680156101825780820380516001836020036101000a031916815260200191505b509250505060405180910390f35b610249600480360360208110156101a657600080fd5b81019080803590602001906401000000008111156101c357600080fd5b8201836020820111156101d557600080fd5b803590602001918460018302840111640100000000831117156101f757600080fd5b91908080601f016020809104026020016040519081016040528093929190818152602001838380828437600081840152601f19601f820116905080830192505050505050509192919290505050610742565b6040518080602001828103825283818151815260200191508051906020019080838360005b8381101561028957808201518184015260208101905061026e565b50505050905090810190601f1680156102b65780820380516001836020036101000a031916815260200191505b509250505060405180910390f35b610414600480360360408110156102da57600080fd5b81019080803590602001906401000000008111156102f757600080fd5b82018360208201111561030957600080fd5b8035906020019184600183028401116401000000008311171561032b57600080fd5b91908080601f016020809104026020016040519081016040528093929190818152602001838380828437600081840152601f19601f8201169050808301925050505050505091929192908035906020019064010000000081111561038e57600080fd5b8201836020820111156103a057600080fd5b803590602001918460018302840111640100000000831117156103c257600080fd5b91908080601f016020809104026020016040519081016040528093929190818152602001838380828437600081840152601f19601f82011690508083019250505050505050919291929050505061084d565b005b6105666004803603604081101561042c57600080fd5b810190808035906020019064010000000081111561044957600080fd5b82018360208201111561045b57600080fd5b8035906020019184600183028401116401000000008311171561047d57600080fd5b91908080601f016020809104026020016040519081016040528093929190818152602001838380828437600081840152601f19601f820116905080830192505050505050509192919290803590602001906401000000008111156104e057600080fd5b8201836020820111156104f257600080fd5b8035906020019184600183028401116401000000008311171561051457600080fd5b91908080601f016020809104026020016040519081016040528093929190818152602001838380828437600081840152601f19601f820116905080830192505050505050509192919290505050610a99565b005b6106216004803603602081101561057e57600080fd5b810190808035906020019064010000000081111561059b57600080fd5b8201836020820111156105ad57600080fd5b803590602001918460018302840111640100000000831117156105cf57600080fd5b91908080601f016020809104026020016040519081016040528093929190818152602001838380828437600081840152601f19601f820116905080830192505050505050509192919290505050610b1b565b6040518082815260200191505060405180910390f35b60606001826040518082805190602001908083835b6020831061066f578051825260208201915060208101905060208303925061064c565b6001836020036101000a03801982511681845116808217855250505050505090500191505090815260200160405180910390208054600181600116156101000203166002900480601f0160208091040260200160405190810160405280929190818152602001828054600181600116156101000203166002900480156107365780601f1061070b57610100808354040283529160200191610736565b820191906000526020600020905b81548152906001019060200180831161071957829003601f168201915b50505050509050919050565b60606000826040518082805190602001908083835b6020831061077a5780518252602082019150602081019050602083039250610757565b6001836020036101000a03801982511681845116808217855250505050505090500191505090815260200160405180910390208054600181600116156101000203166002900480601f0160208091040260200160405190810160405280929190818152602001828054600181600116156101000203166002900480156108415780601f1061081657610100808354040283529160200191610841565b820191906000526020600020905b81548152906001019060200180831161082457829003601f168201915b50505050509050919050565b806001836040518082805190602001908083835b602083106108845780518252602082019150602081019050602083039250610861565b6001836020036101000a038019825116818451168082178552505050505050905001915050908152602001604051809103902090805190602001906108ca929190610b8e565b5060006002836040518082805190602001908083835b6020831061090357805182526020820191506020810190506020830392506108e0565b6001836020036101000a03801982511681845116808217855250505050505090500191505090815260200160405180910390205414156109b15760016002836040518082805190602001908083835b602083106109755780518252602082019150602081019050602083039250610952565b6001836020036101000a038019825116818451168082178552505050505050905001915050908152602001604051809103902081905550610a95565b6002826040518082805190602001908083835b602083106109e757805182526020820191506020810190506020830392506109c4565b6001836020036101000a0380198251168184511680821785525050505050509050019150509081526020016040518091039020600081546001019190508190556002836040518082805190602001908083835b60208310610a5d5780518252602082019150602081019050602083039250610a3a565b6001836020036101000a0380198251168184511680821785525050505050509050019150509081526020016040518091039020819055505b5050565b806000836040518082805190602001908083835b60208310610ad05780518252602082019150602081019050602083039250610aad565b6001836020036101000a03801982511681845116808217855250505050505090500191505090815260200160405180910390209080519060200190610b16929190610b8e565b505050565b60006002826040518082805190602001908083835b60208310610b535780518252602082019150602081019050602083039250610b30565b6001836020036101000a0380198251168184511680821785525050505050509050019150509081526020016040518091039020549050919050565b828054600181600116156101000203166002900490600052602060002090601f016020900481019282601f10610bcf57805160ff1916838001178555610bfd565b82800160010185558215610bfd579182015b82811115610bfc578251825591602001919060010190610be1565b5b509050610c0a9190610c0e565b5090565b610c3091905b80821115610c2c576000816000905550600101610c14565b5090565b9056fea165627a7a72305820a15afc3a005d1e3aade09f3ef15cfff2ed7155ab005bf14d2f8d67f897b833980029",
  "source": "pragma solidity ^0.5.1;\r\n\r\ncontract Encuestas{ \r\n            mapping(string =>string) registroEncuesta;\r\n            mapping(string => string) registroRespuestas;\r\n            mapping(string => int) numRespuestas;\r\n     function registrarEncuesta(string memory nombre, string memory preguntas) public{\r\n            registroEncuesta[nombre] = preguntas;\r\n     }\r\n     \r\n     function getPreguntas(string memory nombre) public view returns (string memory preguntas){\r\n         return registroEncuesta[nombre];\r\n     } \r\n     \r\n    function setRespuesta(string memory nombre,string memory respuesta) public{\r\n        registroRespuestas[nombre]=respuesta;\r\n          if (numRespuestas[nombre]==0){\r\n              numRespuestas[nombre]=1;\r\n          }else{\r\n              numRespuestas[nombre]=++numRespuestas[nombre];\r\n          }\r\n    }\r\n    \r\n    function getRespuesta(string memory nombre) public view returns (string memory respuestas){\r\n        return registroRespuestas[nombre];\r\n    } \r\n    \r\n        function getNumRespuestas(string memory nombre) public view returns (int respuestas){\r\n        return  numRespuestas[nombre];\r\n    }\r\n //¿Esta de acuerdo con el paro nacional?,¿Esta de acuerdo con el costo del pasaje de transmilenio?,¿Esta de acuerdo con el presidente actual?    \r\n}",
  "sourcePath": "C:/Users/FAMILIA/Documents/bc/Nueva carpeta/Blockchain_project/contracts/Encuestas.sol",
  "compiler": {
    "name": "solc",
    "version": "0.5.8+commit.23d335f2.Emscripten.clang"
  },
  "schemaVersion": "3.0.16",
  "updatedAt": "2019-12-02T00:18:20.603Z",
  "devdoc": {
    "methods": {}
  },
  "userdoc": {
    "methods": {}
  }
}