{
  "contractName": "Encuestas",
  "abi": [
    {
      "constant": false,
      "inputs": [
        {
          "name": "nombre",
          "type": "string"
        },
        {
          "name": "preguntas",
          "type": "string"
        }
      ],
      "name": "registrarEncuesta",
      "outputs": [],
      "payable": false,
      "stateMutability": "nonpayable",
      "type": "function"
    },
    {
      "constant": true,
      "inputs": [
        {
          "name": "nombre",
          "type": "string"
        }
      ],
      "name": "getPreguntas",
      "outputs": [
        {
          "name": "preguntas",
          "type": "string"
        }
      ],
      "payable": false,
      "stateMutability": "view",
      "type": "function"
    },
    {
      "constant": false,
      "inputs": [
        {
          "name": "nombre",
          "type": "string"
        },
        {
          "name": "respuesta",
          "type": "bool"
        }
      ],
      "name": "setRespuesta",
      "outputs": [],
      "payable": false,
      "stateMutability": "nonpayable",
      "type": "function"
    },
    {
      "constant": true,
      "inputs": [
        {
          "name": "nombre",
          "type": "string"
        }
      ],
      "name": "getRespuesta",
      "outputs": [
        {
          "name": "respuesta",
          "type": "bool"
        }
      ],
      "payable": false,
      "stateMutability": "view",
      "type": "function"
    }
  ],
  "bytecode": "0x608060405234801561001057600080fd5b506107d4806100206000396000f3fe608060405234801561001057600080fd5b506004361061004c5760003560e01c8063465a9e2c146100515780635b2a9b21146101185780636511a7dc146101eb578063c69816fd1461031f575b600080fd5b6101166004803603604081101561006757600080fd5b810190808035906020019064010000000081111561008457600080fd5b82018360208201111561009657600080fd5b803590602001918460018302840111640100000000831117156100b857600080fd5b91908080601f016020809104026020016040519081016040528093929190818152602001838380828437600081840152601f19601f820116905080830192505050505050509192919290803515159060200190929190505050610471565b005b6101d16004803603602081101561012e57600080fd5b810190808035906020019064010000000081111561014b57600080fd5b82018360208201111561015d57600080fd5b8035906020019184600183028401116401000000008311171561017f57600080fd5b91908080601f016020809104026020016040519081016040528093929190818152602001838380828437600081840152601f19601f8201169050808301925050505050505091929192905050506104f6565b604051808215151515815260200191505060405180910390f35b6102a46004803603602081101561020157600080fd5b810190808035906020019064010000000081111561021e57600080fd5b82018360208201111561023057600080fd5b8035906020019184600183028401116401000000008311171561025257600080fd5b91908080601f016020809104026020016040519081016040528093929190818152602001838380828437600081840152601f19601f820116905080830192505050505050509192919290505050610576565b6040518080602001828103825283818151815260200191508051906020019080838360005b838110156102e45780820151818401526020810190506102c9565b50505050905090810190601f1680156103115780820380516001836020036101000a031916815260200191505b509250505060405180910390f35b61046f6004803603604081101561033557600080fd5b810190808035906020019064010000000081111561035257600080fd5b82018360208201111561036457600080fd5b8035906020019184600183028401116401000000008311171561038657600080fd5b91908080601f016020809104026020016040519081016040528093929190818152602001838380828437600081840152601f19601f820116905080830192505050505050509192919290803590602001906401000000008111156103e957600080fd5b8201836020820111156103fb57600080fd5b8035906020019184600183028401116401000000008311171561041d57600080fd5b91908080601f016020809104026020016040519081016040528093929190818152602001838380828437600081840152601f19601f820116905080830192505050505050509192919290505050610681565b005b806001836040518082805190602001908083835b602083106104a85780518252602082019150602081019050602083039250610485565b6001836020036101000a038019825116818451168082178552505050505050905001915050908152602001604051809103902060006101000a81548160ff0219169083151502179055505050565b60006001826040518082805190602001908083835b6020831061052e578051825260208201915060208101905060208303925061050b565b6001836020036101000a038019825116818451168082178552505050505050905001915050908152602001604051809103902060009054906101000a900460ff169050919050565b60606000826040518082805190602001908083835b602083106105ae578051825260208201915060208101905060208303925061058b565b6001836020036101000a03801982511681845116808217855250505050505090500191505090815260200160405180910390208054600181600116156101000203166002900480601f0160208091040260200160405190810160405280929190818152602001828054600181600116156101000203166002900480156106755780601f1061064a57610100808354040283529160200191610675565b820191906000526020600020905b81548152906001019060200180831161065857829003601f168201915b50505050509050919050565b806000836040518082805190602001908083835b602083106106b85780518252602082019150602081019050602083039250610695565b6001836020036101000a038019825116818451168082178552505050505050905001915050908152602001604051809103902090805190602001906106fe929190610703565b505050565b828054600181600116156101000203166002900490600052602060002090601f016020900481019282601f1061074457805160ff1916838001178555610772565b82800160010185558215610772579182015b82811115610771578251825591602001919060010190610756565b5b50905061077f9190610783565b5090565b6107a591905b808211156107a1576000816000905550600101610789565b5090565b9056fea165627a7a72305820f4be59da41ea68d6f7d2c296adcab077d26326318b82eea5cebf2ac3c1e13f2e0029",
  "source": "pragma solidity ^0.5.1;\r\n\r\ncontract Encuestas{ \r\n            mapping(string =>string) registroEncuesta;\r\n            mapping(string => bool) registroRespuestas;\r\n            \r\n     function registrarEncuesta(string memory nombre, string memory preguntas) public{\r\n            registroEncuesta[nombre] = preguntas; \r\n     }\r\n     \r\n     function getPreguntas(string memory nombre) public view returns (string memory preguntas){\r\n         return registroEncuesta[nombre];\r\n     } \r\n     \r\n    function setRespuesta(string memory nombre,bool respuesta) public{\r\n        registroRespuestas[nombre]=respuesta;\r\n    }\r\n    \r\n    function getRespuesta(string memory nombre) public view returns (bool respuesta){\r\n        return registroRespuestas[nombre];\r\n    } \r\n //¿Esta de acuerdo con el paro nacional?,¿Esta de acuerdo con el costo del pasaje de transmilenio?,¿Esta de acuerdo con el presidente actual?    \r\n}",
  "sourcePath": "C:/Users/familia/Documents/blockchain/aplicacionAngular/contracts/Encuestas.sol",
  "compiler": {
    "name": "solc",
    "version": "0.5.8+commit.23d335f2.Emscripten.clang"
  },
  "schemaVersion": "3.0.16",
  "updatedAt": "2019-11-29T14:49:48.375Z",
  "devdoc": {
    "methods": {}
  },
  "userdoc": {
    "methods": {}
  }
}