{
  "contractName": "Estaciones",
  "abi": [
    {
      "constant": false,
      "inputs": [
        {
          "name": "direccion",
          "type": "address"
        }
      ],
      "name": "consignar",
      "outputs": [],
      "payable": true,
      "stateMutability": "payable",
      "type": "function"
    },
    {
      "constant": false,
      "inputs": [
        {
          "name": "direccion",
          "type": "address"
        }
      ],
      "name": "registrarVehiculo",
      "outputs": [],
      "payable": true,
      "stateMutability": "payable",
      "type": "function"
    },
    {
      "constant": false,
      "inputs": [
        {
          "name": "nombre",
          "type": "string"
        },
        {
          "name": "direccion",
          "type": "address"
        }
      ],
      "name": "registrarEstacion",
      "outputs": [],
      "payable": false,
      "stateMutability": "nonpayable",
      "type": "function"
    },
    {
      "constant": false,
      "inputs": [
        {
          "name": "nombre",
          "type": "string"
        },
        {
          "name": "precio",
          "type": "uint256"
        },
        {
          "name": "direccion",
          "type": "address"
        }
      ],
      "name": "registrarTipoDeGasolina",
      "outputs": [],
      "payable": false,
      "stateMutability": "nonpayable",
      "type": "function"
    },
    {
      "constant": true,
      "inputs": [
        {
          "name": "direccion",
          "type": "address"
        }
      ],
      "name": "obtenerTipoDeGasolina",
      "outputs": [
        {
          "name": "nombreGasolina",
          "type": "string"
        },
        {
          "name": "precio",
          "type": "uint256"
        }
      ],
      "payable": false,
      "stateMutability": "view",
      "type": "function"
    },
    {
      "constant": true,
      "inputs": [
        {
          "name": "vehiculo",
          "type": "address"
        }
      ],
      "name": "getSaldoV",
      "outputs": [
        {
          "name": "saldo",
          "type": "uint256"
        }
      ],
      "payable": false,
      "stateMutability": "view",
      "type": "function"
    },
    {
      "constant": true,
      "inputs": [
        {
          "name": "estacion",
          "type": "address"
        }
      ],
      "name": "getSaldoG",
      "outputs": [
        {
          "name": "saldo",
          "type": "uint256"
        }
      ],
      "payable": false,
      "stateMutability": "view",
      "type": "function"
    },
    {
      "constant": false,
      "inputs": [
        {
          "name": "estacion",
          "type": "address"
        },
        {
          "name": "vehiculo",
          "type": "address"
        },
        {
          "name": "galones",
          "type": "uint256"
        }
      ],
      "name": "cargarGas",
      "outputs": [],
      "payable": true,
      "stateMutability": "payable",
      "type": "function"
    },
    {
      "constant": false,
      "inputs": [
        {
          "name": "vehiculo",
          "type": "address"
        }
      ],
      "name": "solicitardevolucion",
      "outputs": [],
      "payable": true,
      "stateMutability": "payable",
      "type": "function"
    }
  ],
  "bytecode": "0x608060405234801561001057600080fd5b50611160806100206000396000f3fe6080604052600436106100865760003560e01c80637731f9f4116100595780637731f9f41461024957806382ecce21146102b7578063b0d44ca5146102fb578063b6af2a74146103ed578063fdeab855146104d557610086565b8063071470bd1461008b57806341f9624f146100f0578063489587df146101345780635572434d14610178575b600080fd5b34801561009757600080fd5b506100da600480360360208110156100ae57600080fd5b81019080803573ffffffffffffffffffffffffffffffffffffffff16906020019092919050505061053a565b6040518082815260200191505060405180910390f35b6101326004803603602081101561010657600080fd5b81019080803573ffffffffffffffffffffffffffffffffffffffff1690602001909291905050506105e2565b005b6101766004803603602081101561014a57600080fd5b81019080803573ffffffffffffffffffffffffffffffffffffffff169060200190929190505050610692565b005b34801561018457600080fd5b506101c76004803603602081101561019b57600080fd5b81019080803573ffffffffffffffffffffffffffffffffffffffff1690602001909291905050506107e2565b6040518080602001838152602001828103825284818151815260200191508051906020019080838360005b8381101561020d5780820151818401526020810190506101f2565b50505050905090810190601f16801561023a5780820380516001836020036101000a031916815260200191505b50935050505060405180910390f35b6102b56004803603606081101561025f57600080fd5b81019080803573ffffffffffffffffffffffffffffffffffffffff169060200190929190803573ffffffffffffffffffffffffffffffffffffffff1690602001909291908035906020019092919050505061096f565b005b6102f9600480360360208110156102cd57600080fd5b81019080803573ffffffffffffffffffffffffffffffffffffffff169060200190929190505050610bd9565b005b34801561030757600080fd5b506103eb6004803603606081101561031e57600080fd5b810190808035906020019064010000000081111561033b57600080fd5b82018360208201111561034d57600080fd5b8035906020019184600183028401116401000000008311171561036f57600080fd5b91908080601f016020809104026020016040519081016040528093929190818152602001838380828437600081840152601f19601f82011690508083019250505050505050919291929080359060200190929190803573ffffffffffffffffffffffffffffffffffffffff169060200190929190505050610d30565b005b3480156103f957600080fd5b506104d36004803603604081101561041057600080fd5b810190808035906020019064010000000081111561042d57600080fd5b82018360208201111561043f57600080fd5b8035906020019184600183028401116401000000008311171561046157600080fd5b91908080601f016020809104026020016040519081016040528093929190818152602001838380828437600081840152601f19601f820116905080830192505050505050509192919290803573ffffffffffffffffffffffffffffffffffffffff169060200190929190505050610e77565b005b3480156104e157600080fd5b50610524600480360360208110156104f857600080fd5b81019080803573ffffffffffffffffffffffffffffffffffffffff169060200190929190505050610fad565b6040518082815260200191505060405180910390f35b6000600160008373ffffffffffffffffffffffffffffffffffffffff1673ffffffffffffffffffffffffffffffffffffffff16815260200190815260200160002060000160009054906101000a900460ff16156105d857600260008373ffffffffffffffffffffffffffffffffffffffff1673ffffffffffffffffffffffffffffffffffffffff1681526020019081526020016000205490506105dd565b600080fd5b919050565b6000808273ffffffffffffffffffffffffffffffffffffffff1673ffffffffffffffffffffffffffffffffffffffff16815260200190815260200160002060000160009054906101000a900460ff161561068a57346000808373ffffffffffffffffffffffffffffffffffffffff1673ffffffffffffffffffffffffffffffffffffffff1681526020019081526020016000206001016000828254019250508190555061068f565b600080fd5b50565b6000808273ffffffffffffffffffffffffffffffffffffffff1673ffffffffffffffffffffffffffffffffffffffff16815260200190815260200160002060000160009054906101000a900460ff16156107da5760008060008373ffffffffffffffffffffffffffffffffffffffff1673ffffffffffffffffffffffffffffffffffffffff16815260200190815260200160002060000160019054906101000a900473ffffffffffffffffffffffffffffffffffffffff1690508073ffffffffffffffffffffffffffffffffffffffff166108fc6000808573ffffffffffffffffffffffffffffffffffffffff1673ffffffffffffffffffffffffffffffffffffffff168152602001908152602001600020600101549081150290604051600060405180830381858888f193505050501580156107d3573d6000803e3d6000fd5b50506107df565b600080fd5b50565b60606000600160008473ffffffffffffffffffffffffffffffffffffffff1673ffffffffffffffffffffffffffffffffffffffff16815260200190815260200160002060000160009054906101000a900460ff161561096557600160008473ffffffffffffffffffffffffffffffffffffffff1673ffffffffffffffffffffffffffffffffffffffff168152602001908152602001600020600201600160008573ffffffffffffffffffffffffffffffffffffffff1673ffffffffffffffffffffffffffffffffffffffff16815260200190815260200160002060030154818054600181600116156101000203166002900480601f0160208091040260200160405190810160405280929190818152602001828054600181600116156101000203166002900480156109555780601f1061092a57610100808354040283529160200191610955565b820191906000526020600020905b81548152906001019060200180831161093857829003601f168201915b505050505091509150915061096a565b600080fd5b915091565b6000808373ffffffffffffffffffffffffffffffffffffffff1673ffffffffffffffffffffffffffffffffffffffff16815260200190815260200160002060000160009054906101000a900460ff168015610a165750600160008473ffffffffffffffffffffffffffffffffffffffff1673ffffffffffffffffffffffffffffffffffffffff16815260200190815260200160002060000160009054906101000a900460ff165b15610bcf5780600160008573ffffffffffffffffffffffffffffffffffffffff1673ffffffffffffffffffffffffffffffffffffffff16815260200190815260200160002060030154026000808473ffffffffffffffffffffffffffffffffffffffff1673ffffffffffffffffffffffffffffffffffffffff168152602001908152602001600020600101600082825403925050819055508273ffffffffffffffffffffffffffffffffffffffff166108fc82600160008773ffffffffffffffffffffffffffffffffffffffff1673ffffffffffffffffffffffffffffffffffffffff16815260200190815260200160002060030154029081150290604051600060405180830381858888f19350505050158015610b38573d6000803e3d6000fd5b5080600160008573ffffffffffffffffffffffffffffffffffffffff1673ffffffffffffffffffffffffffffffffffffffff1681526020019081526020016000206003015402600260008573ffffffffffffffffffffffffffffffffffffffff1673ffffffffffffffffffffffffffffffffffffffff16815260200190815260200160002060008282540192505081905550610bd4565b600080fd5b505050565b6000808273ffffffffffffffffffffffffffffffffffffffff1673ffffffffffffffffffffffffffffffffffffffff16815260200190815260200160002060000160009054906101000a900460ff16610d2357610c34611056565b60405180606001604052806001151581526020018373ffffffffffffffffffffffffffffffffffffffff168152602001348152509050806000808473ffffffffffffffffffffffffffffffffffffffff1673ffffffffffffffffffffffffffffffffffffffff16815260200190815260200160002060008201518160000160006101000a81548160ff02191690831515021790555060208201518160000160016101000a81548173ffffffffffffffffffffffffffffffffffffffff021916908373ffffffffffffffffffffffffffffffffffffffff1602179055506040820151816001015590505050610d2d565b610d2c816105e2565b5b50565b600160008273ffffffffffffffffffffffffffffffffffffffff1673ffffffffffffffffffffffffffffffffffffffff16815260200190815260200160002060000160009054906101000a900460ff1615610e6d5782600160008373ffffffffffffffffffffffffffffffffffffffff1673ffffffffffffffffffffffffffffffffffffffff1681526020019081526020016000206002019080519060200190610ddb92919061108f565b5081600160008373ffffffffffffffffffffffffffffffffffffffff1673ffffffffffffffffffffffffffffffffffffffff168152602001908152602001600020600301819055506000600260008373ffffffffffffffffffffffffffffffffffffffff1673ffffffffffffffffffffffffffffffffffffffff16815260200190815260200160002081905550610e72565b600080fd5b505050565b60018060008373ffffffffffffffffffffffffffffffffffffffff1673ffffffffffffffffffffffffffffffffffffffff16815260200190815260200160002060000160006101000a81548160ff02191690831515021790555081600160008373ffffffffffffffffffffffffffffffffffffffff1673ffffffffffffffffffffffffffffffffffffffff1681526020019081526020016000206001019080519060200190610f2792919061108f565b5080600160008373ffffffffffffffffffffffffffffffffffffffff1673ffffffffffffffffffffffffffffffffffffffff16815260200190815260200160002060000160016101000a81548173ffffffffffffffffffffffffffffffffffffffff021916908373ffffffffffffffffffffffffffffffffffffffff1602179055505050565b60008060008373ffffffffffffffffffffffffffffffffffffffff1673ffffffffffffffffffffffffffffffffffffffff16815260200190815260200160002060000160009054906101000a900460ff161561104c576000808373ffffffffffffffffffffffffffffffffffffffff1673ffffffffffffffffffffffffffffffffffffffff168152602001908152602001600020600101549050611051565b600080fd5b919050565b6040518060600160405280600015158152602001600073ffffffffffffffffffffffffffffffffffffffff168152602001600081525090565b828054600181600116156101000203166002900490600052602060002090601f016020900481019282601f106110d057805160ff19168380011785556110fe565b828001600101855582156110fe579182015b828111156110fd5782518255916020019190600101906110e2565b5b50905061110b919061110f565b5090565b61113191905b8082111561112d576000816000905550600101611115565b5090565b9056fea165627a7a723058205aed76b0397aecc7334e8ba0f8453e792c5380d69659d60e63dc520731b3b5100029",
  "source": "pragma solidity ^0.5.1;\r\n\r\ncontract Estaciones{\r\n    \r\n    struct Vehiculo{\r\n        bool existe;\r\n        address direccion;\r\n            uint256 saldo;\r\n        }\r\n        \r\n    struct Estacion{\r\n           bool existe;\r\n            address direccion;\r\n            string nombre;\r\n            string nombreGasolina;\r\n            uint precioPorGalon;\r\n        }\r\n        \r\n      mapping (address => Vehiculo) Vehiculos;\r\n      mapping (address => Estacion) Estaciones;\r\n      mapping (address => uint) saldoEstacion;\r\n\r\n    function consignar(address direccion) public payable{\r\n        if(Vehiculos[direccion].existe){\r\n            Vehiculos[direccion].saldo+=msg.value;\r\n}\r\n else{\r\n               revert();\r\n           }\r\n    }\r\n\r\n\r\n     function registrarVehiculo(address direccion ) public payable{\r\n                if(!Vehiculos[direccion].existe){\r\n            Vehiculo memory vehiculo = Vehiculo(true,direccion,msg.value);\r\n            Vehiculos[direccion] = vehiculo ;  //se registra un Vehiculo\r\n                }else{\r\n                    consignar(direccion);\r\n                }\r\n        }\r\n    \r\n     function registrarEstacion(string memory nombre,address direccion) public{\r\n            Estaciones[direccion].existe=true;\r\n            Estaciones[direccion].nombre = nombre;\r\n            Estaciones[direccion].direccion = direccion;\r\n        }\r\n    //setGasInfo\r\n      function registrarTipoDeGasolina(string memory nombre, uint precio,address direccion) public{\r\n            if(Estaciones[direccion].existe){\r\n         Estaciones[direccion].nombreGasolina=nombre;\r\n         Estaciones[direccion].precioPorGalon=precio; \r\n         saldoEstacion[direccion]=0;\r\n            }\r\n             else{\r\n               revert();\r\n           }\r\n        \r\n      }\r\n        //getGasInfo\r\n       function obtenerTipoDeGasolina(address direccion) public view returns (string memory nombreGasolina, uint precio){\r\n           if(Estaciones[direccion].existe){\r\n        return(Estaciones[direccion].nombreGasolina, Estaciones[direccion].precioPorGalon);\r\n       }\r\n           else{\r\n               revert();\r\n           }\r\n       }\r\n       \r\n       function getSaldoV(address vehiculo)public view returns (uint saldo){\r\n             if(Vehiculos[vehiculo].existe){\r\n    return(Vehiculos[vehiculo].saldo);\r\n             }else{\r\n                 revert();\r\n             }\r\n}\r\nfunction getSaldoG(address estacion)public view returns (uint saldo){\r\n      if(Estaciones[estacion].existe){\r\n    return(saldoEstacion[estacion]);\r\n      }\r\n      else{\r\n          revert();\r\n      }\r\n}\r\n       \r\n          \r\nfunction cargarGas(address payable estacion, address payable vehiculo, uint galones)public payable{\r\n                if(Vehiculos[vehiculo].existe && Estaciones[estacion].existe){\r\n              Vehiculos[vehiculo].saldo-=Estaciones[estacion].precioPorGalon*galones;\r\n             estacion.transfer(Estaciones[estacion].precioPorGalon*galones);\r\n              saldoEstacion[estacion]+=Estaciones[estacion].precioPorGalon*galones;\r\n                }else{\r\n                    revert();\r\n                }\r\n         \r\n         \r\n        }\r\n\r\n  function solicitardevolucion(address payable vehiculo) public payable{\r\n      if (Vehiculos[vehiculo].existe){\r\n      address payable ad=address(uint160(Vehiculos[vehiculo].direccion));\r\n        ad.transfer(Vehiculos[vehiculo].saldo);\r\n        }else{\r\n            revert();\r\n        }\r\n      \r\n  }\r\n\r\n        \r\n\r\n}",
  "sourcePath": "C:/Users/familia/Documents/blockchain/aplicacionAngular/contracts/Estaciones.sol",
  "compiler": {
    "name": "solc",
    "version": "0.5.8+commit.23d335f2.Emscripten.clang"
  },
  "schemaVersion": "3.0.16",
  "updatedAt": "2019-11-29T14:49:22.515Z",
  "devdoc": {
    "methods": {}
  },
  "userdoc": {
    "methods": {}
  }
}