{
  "contractName": "ProyectoPredio",
  "abi": [
    {
      "constant": false,
      "inputs": [
        {
          "name": "predio",
          "type": "address"
        },
        {
          "name": "area",
          "type": "uint256"
        },
        {
          "name": "direccion",
          "type": "string"
        },
        {
          "name": "numeropisos",
          "type": "uint256"
        }
      ],
      "name": "registrarPredio",
      "outputs": [],
      "payable": false,
      "stateMutability": "nonpayable",
      "type": "function"
    },
    {
      "constant": false,
      "inputs": [
        {
          "name": "nombre",
          "type": "string"
        },
        {
          "name": "direccion",
          "type": "address"
        }
      ],
      "name": "registrarPropietario",
      "outputs": [],
      "payable": false,
      "stateMutability": "nonpayable",
      "type": "function"
    },
    {
      "constant": false,
      "inputs": [
        {
          "name": "direccion",
          "type": "address"
        },
        {
          "name": "nombrematerial",
          "type": "string"
        }
      ],
      "name": "registrarMaterial",
      "outputs": [],
      "payable": false,
      "stateMutability": "nonpayable",
      "type": "function"
    },
    {
      "constant": true,
      "inputs": [
        {
          "name": "direccion",
          "type": "address"
        },
        {
          "name": "index",
          "type": "uint256"
        }
      ],
      "name": "obtenerMaterial",
      "outputs": [
        {
          "name": "material",
          "type": "string"
        }
      ],
      "payable": false,
      "stateMutability": "view",
      "type": "function"
    },
    {
      "constant": true,
      "inputs": [
        {
          "name": "direccion",
          "type": "address"
        }
      ],
      "name": "numeroDeMateriales",
      "outputs": [
        {
          "name": "cantidad",
          "type": "uint256"
        }
      ],
      "payable": false,
      "stateMutability": "view",
      "type": "function"
    },
    {
      "constant": false,
      "inputs": [
        {
          "name": "predio",
          "type": "address"
        },
        {
          "name": "propietario",
          "type": "address"
        }
      ],
      "name": "registrarPropietarioAUnPredio",
      "outputs": [],
      "payable": false,
      "stateMutability": "nonpayable",
      "type": "function"
    },
    {
      "constant": false,
      "inputs": [
        {
          "name": "predio",
          "type": "address"
        }
      ],
      "name": "crearPisoEnUnPredio",
      "outputs": [],
      "payable": false,
      "stateMutability": "nonpayable",
      "type": "function"
    },
    {
      "constant": true,
      "inputs": [
        {
          "name": "predio",
          "type": "address"
        }
      ],
      "name": "numeroDePisosDeUnPredio",
      "outputs": [
        {
          "name": "numeroDePisosDeUnPredio",
          "type": "uint256"
        }
      ],
      "payable": false,
      "stateMutability": "view",
      "type": "function"
    },
    {
      "constant": true,
      "inputs": [
        {
          "name": "predio",
          "type": "address"
        }
      ],
      "name": "nombrePropietario",
      "outputs": [
        {
          "name": "nombre",
          "type": "string"
        }
      ],
      "payable": false,
      "stateMutability": "view",
      "type": "function"
    },
    {
      "constant": false,
      "inputs": [
        {
          "name": "origen",
          "type": "address"
        },
        {
          "name": "destino",
          "type": "address"
        },
        {
          "name": "predio",
          "type": "address"
        },
        {
          "name": "fecha",
          "type": "string"
        }
      ],
      "name": "transferirPredio",
      "outputs": [],
      "payable": false,
      "stateMutability": "nonpayable",
      "type": "function"
    }
  ],
  "bytecode": "0x608060405234801561001057600080fd5b50611793806100206000396000f3fe608060405234801561001057600080fd5b506004361061009e5760003560e01c80634fe7e2d7116100665780634fe7e2d71461041257806361cfa070146104d95780638ccc99291461051d5780639eba316614610575578063b9b84b11146106645761009e565b80630ec99ab9146100a3578063227db0ee1461010757806330daab0e1461022257806339932734146102df5780633f4fe394146103ba575b600080fd5b610105600480360360408110156100b957600080fd5b81019080803573ffffffffffffffffffffffffffffffffffffffff169060200190929190803573ffffffffffffffffffffffffffffffffffffffff16906020019092919050505061073f565b005b6102206004803603608081101561011d57600080fd5b81019080803573ffffffffffffffffffffffffffffffffffffffff169060200190929190803573ffffffffffffffffffffffffffffffffffffffff169060200190929190803573ffffffffffffffffffffffffffffffffffffffff1690602001909291908035906020019064010000000081111561019a57600080fd5b8201836020820111156101ac57600080fd5b803590602001918460018302840111640100000000831117156101ce57600080fd5b91908080601f016020809104026020016040519081016040528093929190818152602001838380828437600081840152601f19601f82011690508083019250505050505050919291929050505061092b565b005b6102646004803603602081101561023857600080fd5b81019080803573ffffffffffffffffffffffffffffffffffffffff169060200190929190505050610c5d565b6040518080602001828103825283818151815260200191508051906020019080838360005b838110156102a4578082015181840152602081019050610289565b50505050905090810190601f1680156102d15780820380516001836020036101000a031916815260200191505b509250505060405180910390f35b6103b8600480360360408110156102f557600080fd5b810190808035906020019064010000000081111561031257600080fd5b82018360208201111561032457600080fd5b8035906020019184600183028401116401000000008311171561034657600080fd5b91908080601f016020809104026020016040519081016040528093929190818152602001838380828437600081840152601f19601f820116905080830192505050505050509192919290803573ffffffffffffffffffffffffffffffffffffffff169060200190929190505050610f10565b005b6103fc600480360360208110156103d057600080fd5b81019080803573ffffffffffffffffffffffffffffffffffffffff169060200190929190505050610fb7565b6040518082815260200191505060405180910390f35b61045e6004803603604081101561042857600080fd5b81019080803573ffffffffffffffffffffffffffffffffffffffff16906020019092919080359060200190929190505050611060565b6040518080602001828103825283818151815260200191508051906020019080838360005b8381101561049e578082015181840152602081019050610483565b50505050905090810190601f1680156104cb5780820380516001836020036101000a031916815260200191505b509250505060405180910390f35b61051b600480360360208110156104ef57600080fd5b81019080803573ffffffffffffffffffffffffffffffffffffffff169060200190929190505050611206565b005b61055f6004803603602081101561053357600080fd5b81019080803573ffffffffffffffffffffffffffffffffffffffff1690602001909291905050506112b8565b6040518082815260200191505060405180910390f35b6106626004803603608081101561058b57600080fd5b81019080803573ffffffffffffffffffffffffffffffffffffffff16906020019092919080359060200190929190803590602001906401000000008111156105d257600080fd5b8201836020820111156105e457600080fd5b8035906020019184600183028401116401000000008311171561060657600080fd5b91908080601f016020809104026020016040519081016040528093929190818152602001838380828437600081840152601f19601f82011690508083019250505050505050919291929080359060200190929190505050611364565b005b61073d6004803603604081101561067a57600080fd5b81019080803573ffffffffffffffffffffffffffffffffffffffff169060200190929190803590602001906401000000008111156106b757600080fd5b8201836020820111156106c957600080fd5b803590602001918460018302840111640100000000831117156106eb57600080fd5b91908080601f016020809104026020016040519081016040528093929190818152602001838380828437600081840152601f19601f820116905080830192505050505050509192919290505050611500565b005b6000808373ffffffffffffffffffffffffffffffffffffffff1673ffffffffffffffffffffffffffffffffffffffff16815260200190815260200160002060000160009054906101000a900460ff1680156107e657506000808373ffffffffffffffffffffffffffffffffffffffff1673ffffffffffffffffffffffffffffffffffffffff16815260200190815260200160002060050160149054906101000a900460ff16155b801561083e5750600160008273ffffffffffffffffffffffffffffffffffffffff1673ffffffffffffffffffffffffffffffffffffffff16815260200190815260200160002060000160009054906101000a900460ff165b1561092257806000808473ffffffffffffffffffffffffffffffffffffffff1673ffffffffffffffffffffffffffffffffffffffff16815260200190815260200160002060050160006101000a81548173ffffffffffffffffffffffffffffffffffffffff021916908373ffffffffffffffffffffffffffffffffffffffff16021790555060016000808473ffffffffffffffffffffffffffffffffffffffff1673ffffffffffffffffffffffffffffffffffffffff16815260200190815260200160002060050160146101000a81548160ff021916908315150217905550610927565b600080fd5b5050565b6000808373ffffffffffffffffffffffffffffffffffffffff1673ffffffffffffffffffffffffffffffffffffffff16815260200190815260200160002060000160009054906101000a900460ff1680156109d25750600160008573ffffffffffffffffffffffffffffffffffffffff1673ffffffffffffffffffffffffffffffffffffffff16815260200190815260200160002060000160009054906101000a900460ff165b8015610a2a5750600160008473ffffffffffffffffffffffffffffffffffffffff1673ffffffffffffffffffffffffffffffffffffffff16815260200190815260200160002060000160009054906101000a900460ff165b8015610a8157506000808373ffffffffffffffffffffffffffffffffffffffff1673ffffffffffffffffffffffffffffffffffffffff16815260200190815260200160002060050160149054906101000a900460ff165b15610c5257826000808473ffffffffffffffffffffffffffffffffffffffff1673ffffffffffffffffffffffffffffffffffffffff16815260200190815260200160002060050160006101000a81548173ffffffffffffffffffffffffffffffffffffffff021916908373ffffffffffffffffffffffffffffffffffffffff160217905550610b0e6115e0565b60405180604001604052808673ffffffffffffffffffffffffffffffffffffffff1681526020018573ffffffffffffffffffffffffffffffffffffffff168152509050806002836040518082805190602001908083835b60208310610b885780518252602082019150602081019050602083039250610b65565b6001836020036101000a038019825116818451168082178552505050505050905001915050908152602001604051809103902060008201518160000160006101000a81548173ffffffffffffffffffffffffffffffffffffffff021916908373ffffffffffffffffffffffffffffffffffffffff16021790555060208201518160010160006101000a81548173ffffffffffffffffffffffffffffffffffffffff021916908373ffffffffffffffffffffffffffffffffffffffff16021790555090505050610c57565b600080fd5b50505050565b60606000808373ffffffffffffffffffffffffffffffffffffffff1673ffffffffffffffffffffffffffffffffffffffff16815260200190815260200160002060000160009054906101000a900460ff168015610d675750600160008060008573ffffffffffffffffffffffffffffffffffffffff1673ffffffffffffffffffffffffffffffffffffffff16815260200190815260200160002060050160009054906101000a900473ffffffffffffffffffffffffffffffffffffffff1673ffffffffffffffffffffffffffffffffffffffff1673ffffffffffffffffffffffffffffffffffffffff16815260200190815260200160002060000160009054906101000a900460ff165b8015610dbe57506000808373ffffffffffffffffffffffffffffffffffffffff1673ffffffffffffffffffffffffffffffffffffffff16815260200190815260200160002060050160149054906101000a900460ff165b15610f0657600160008060008573ffffffffffffffffffffffffffffffffffffffff1673ffffffffffffffffffffffffffffffffffffffff16815260200190815260200160002060050160009054906101000a900473ffffffffffffffffffffffffffffffffffffffff1673ffffffffffffffffffffffffffffffffffffffff1673ffffffffffffffffffffffffffffffffffffffff1681526020019081526020016000206001018054600181600116156101000203166002900480601f016020809104026020016040519081016040528092919081815260200182805460018160011615610100020316600290048015610efa5780601f10610ecf57610100808354040283529160200191610efa565b820191906000526020600020905b815481529060010190602001808311610edd57829003601f168201915b50505050509050610f0b565b600080fd5b919050565b610f18611626565b604051806040016040528060011515815260200184815250905080600160008473ffffffffffffffffffffffffffffffffffffffff1673ffffffffffffffffffffffffffffffffffffffff16815260200190815260200160002060008201518160000160006101000a81548160ff0219169083151502179055506020820151816001019080519060200190610fae929190611642565b50905050505050565b60008060008373ffffffffffffffffffffffffffffffffffffffff1673ffffffffffffffffffffffffffffffffffffffff16815260200190815260200160002060000160009054906101000a900460ff1615611056576000808373ffffffffffffffffffffffffffffffffffffffff1673ffffffffffffffffffffffffffffffffffffffff16815260200190815260200160002060030154905061105b565b600080fd5b919050565b60606000808473ffffffffffffffffffffffffffffffffffffffff1673ffffffffffffffffffffffffffffffffffffffff16815260200190815260200160002060000160009054906101000a900460ff1680156111005750816000808573ffffffffffffffffffffffffffffffffffffffff1673ffffffffffffffffffffffffffffffffffffffff16815260200190815260200160002060040180549050115b156111fb576000808473ffffffffffffffffffffffffffffffffffffffff1673ffffffffffffffffffffffffffffffffffffffff168152602001908152602001600020600401828154811061115157fe5b906000526020600020018054600181600116156101000203166002900480601f0160208091040260200160405190810160405280929190818152602001828054600181600116156101000203166002900480156111ef5780601f106111c4576101008083540402835291602001916111ef565b820191906000526020600020905b8154815290600101906020018083116111d257829003601f168201915b50505050509050611200565b600080fd5b92915050565b6000808273ffffffffffffffffffffffffffffffffffffffff1673ffffffffffffffffffffffffffffffffffffffff16815260200190815260200160002060000160009054906101000a900460ff16156112b0576000808273ffffffffffffffffffffffffffffffffffffffff1673ffffffffffffffffffffffffffffffffffffffff168152602001908152602001600020600301600081548092919060010191905055506112b5565b600080fd5b50565b60008060008373ffffffffffffffffffffffffffffffffffffffff1673ffffffffffffffffffffffffffffffffffffffff16815260200190815260200160002060000160009054906101000a900460ff161561135a576000808373ffffffffffffffffffffffffffffffffffffffff1673ffffffffffffffffffffffffffffffffffffffff16815260200190815260200160002060040180549050905061135f565b600080fd5b919050565b60016000808673ffffffffffffffffffffffffffffffffffffffff1673ffffffffffffffffffffffffffffffffffffffff16815260200190815260200160002060000160006101000a81548160ff021916908315150217905550826000808673ffffffffffffffffffffffffffffffffffffffff1673ffffffffffffffffffffffffffffffffffffffff16815260200190815260200160002060010181905550816000808673ffffffffffffffffffffffffffffffffffffffff1673ffffffffffffffffffffffffffffffffffffffff16815260200190815260200160002060020190805190602001906114599291906116c2565b50806000808673ffffffffffffffffffffffffffffffffffffffff1673ffffffffffffffffffffffffffffffffffffffff1681526020019081526020016000206003018190555060008060008673ffffffffffffffffffffffffffffffffffffffff1673ffffffffffffffffffffffffffffffffffffffff16815260200190815260200160002060050160146101000a81548160ff02191690831515021790555050505050565b6000808373ffffffffffffffffffffffffffffffffffffffff1673ffffffffffffffffffffffffffffffffffffffff16815260200190815260200160002060000160009054906101000a900460ff16156115d7576000808373ffffffffffffffffffffffffffffffffffffffff1673ffffffffffffffffffffffffffffffffffffffff1681526020019081526020016000206004018190806001815401808255809150509060018203906000526020600020016000909192909190915090805190602001906115d09291906116c2565b50506115dc565b600080fd5b5050565b6040518060400160405280600073ffffffffffffffffffffffffffffffffffffffff168152602001600073ffffffffffffffffffffffffffffffffffffffff1681525090565b6040518060400160405280600015158152602001606081525090565b828054600181600116156101000203166002900490600052602060002090601f016020900481019282601f1061168357805160ff19168380011785556116b1565b828001600101855582156116b1579182015b828111156116b0578251825591602001919060010190611695565b5b5090506116be9190611742565b5090565b828054600181600116156101000203166002900490600052602060002090601f016020900481019282601f1061170357805160ff1916838001178555611731565b82800160010185558215611731579182015b82811115611730578251825591602001919060010190611715565b5b50905061173e9190611742565b5090565b61176491905b80821115611760576000816000905550600101611748565b5090565b9056fea165627a7a72305820d72e1ef9622da771a9a73074fb5a7c1bb156b00049b5f345fa852c47ab0b04700029",
  "source": "pragma solidity ^0.5.1;\r\n\r\ncontract ProyectoPredio{\r\n    \r\nstruct Propietario{\r\n    bool creado;\r\n    string nombre;\r\n }   \r\n struct Predio {\r\n     bool creado;\r\n     uint area;\r\n     string direccion;\r\n     uint numeropisos;\r\n     string[] materiales;\r\n    address propietario;\r\n     bool conPropietario;\r\n     }\r\n \r\n struct Transaccion{\r\n     address destino;\r\n     address origen;\r\n }\r\n \r\n\r\n    mapping(address =>Predio) registroPredio;\r\n    mapping (address => Propietario) registroPropietario;\r\n    mapping (string => Transaccion) registroTransaccion;\r\n\r\n     function registrarPredio(address predio, uint area, string memory direccion, uint numeropisos) public{\r\n          registroPredio[predio].creado = true;\r\n            registroPredio[predio].area = area;\r\n             registroPredio[predio].direccion = direccion;\r\n             registroPredio[predio].numeropisos = numeropisos;\r\n             registroPredio[predio].conPropietario = false;\r\n        }\r\n     function registrarPropietario(string memory nombre, address direccion) public{\r\n             Propietario memory propietario = Propietario(true,nombre);\r\n            registroPropietario[direccion] = propietario;  //se registra un propietario\r\n     }\r\n     function registrarMaterial(address direccion, string memory nombrematerial) public{\r\n         if(registroPredio[direccion].creado){ \r\n             registroPredio[direccion].materiales.push(nombrematerial);\r\n         }else{\r\n             revert();\r\n         }\r\n     }\r\n     \r\n     function obtenerMaterial(address direccion, uint index) public view returns (string memory material){\r\n         if(registroPredio[direccion].creado && registroPredio[direccion].materiales.length>index){\r\n             return(registroPredio[direccion].materiales[index]);\r\n         }else{\r\n             revert();\r\n         }\r\n     }\r\n     \r\n     function numeroDeMateriales(address direccion) public view returns (uint cantidad){\r\n         if(registroPredio[direccion].creado){\r\n             return (registroPredio[direccion].materiales.length);\r\n         }else{\r\n             revert();\r\n         }\r\n         \r\n     }\r\n     \r\n     function registrarPropietarioAUnPredio (address predio, address propietario) public{\r\n         if (registroPredio[predio].creado && !registroPredio[predio].conPropietario && registroPropietario[propietario].creado){\r\n            registroPredio[predio].propietario=propietario;\r\n            registroPredio[predio].conPropietario=true;\r\n         }else{\r\n             revert();\r\n         }\r\n     }\r\n     \r\n     function crearPisoEnUnPredio (address predio) public{\r\n          if (registroPredio[predio].creado){\r\n              registroPredio[predio].numeropisos++;\r\n          }else{\r\n              revert();\r\n          }\r\n     }\r\n     \r\n     function numeroDePisosDeUnPredio (address predio) public view returns (uint numeroDePisosDeUnPredio){\r\n           if (registroPredio[predio].creado){\r\n             return(registroPredio[predio].numeropisos);\r\n          }else{\r\n              revert();\r\n          }\r\n     }\r\n\r\n    function nombrePropietario (address predio)public view returns (string memory nombre){\r\n        if (registroPredio[predio].creado && registroPropietario[registroPredio[predio].propietario].creado && registroPredio[predio].conPropietario){\r\n        return (registroPropietario[registroPredio[predio].propietario].nombre);\r\n        }else{\r\n            revert();\r\n        }\r\n    } \r\n    \r\n    \r\n   \r\n     \r\n     function transferirPredio (address origen, address destino, address predio, string memory fecha) public{\r\n          if (registroPredio[predio].creado && registroPropietario[origen].creado && registroPropietario[destino].creado && registroPredio[predio].conPropietario)\r\n     {\r\n                    registroPredio[predio].propietario=destino;\r\n                    Transaccion memory transaccion= Transaccion(origen,destino);\r\n                    registroTransaccion[fecha]=transaccion;\r\n     }else{\r\n         revert();\r\n     }\r\n         \r\n         \r\n     }\r\n     \r\n //0x5765Bd8a45Ec37C341dbe2e6EA3E9daf2Edac82C     0xfd1A0a12FC3160a72aA860a50884d9d57Ec97B38\r\n}\r\n \r\n \r\n\r\n        ",
  "sourcePath": "C:/Users/familia/Documents/blockchain/aplicacionAngular/contracts/ProyectoPredio.sol",
  "compiler": {
    "name": "solc",
    "version": "0.5.8+commit.23d335f2.Emscripten.clang"
  },
  "schemaVersion": "3.0.16",
  "updatedAt": "2019-11-29T14:49:31.929Z",
  "devdoc": {
    "methods": {}
  },
  "userdoc": {
    "methods": {}
  }
}